:020000040000fa
:080000000002040000000000f2
:020000040000fa
:0400080032050000bd
:020000040000fa
:04000c0044050000a7
:020000040000fa
:040010005c0500008b
:020000040000fa
:040014003a050000a9
:020000040000fa
:040018004c05000093
:020000040000fa
:04001c005405000087
:020000040000fa
:040020006405000073
:020000040000fa
:040024006c05000067
:020000040000fa
:040028006c05000063
:020000040000fa
:04002c006c0500005f
:020000040000fa
:040030006c0500005b
:020000040000fa
:040034006c05000057
:020000040000fa
:040038006c05000053
:020000040000fa
:04003c006c0500004f
:020000040000fa
:040040006c0500004b
:020000040000fa
:040044006c05000047
:020000040000fa
:040048006c05000043
:020000040000fa
:04004c006c0500003f
:020000040000fa
:040050006c0500003b
:020000040000fa
:040054006c05000037
:020000040000fa
:040058006c05000033
:020000040000fa
:04005c000605000095
:020000040000fa
:040060006c0500002b
:020000040000fa
:040064006c05000027
:020000040000fa
:040068006c05000023
:020000040000fa
:04006c006c0500001f
:020000040000fa
:040070006c0500001b
:020000040000fa
:040074006c05000017
:020000040000fa
:040078006c05000013
:020000040000fa
:04007c006c0500000f
:020000040000fa
:040080006c0500000b
:020000040000fa
:040084006c05000007
:020000040000fa
:040088006c05000003
:020000040000fa
:04008c006c050000ff
:020000040000fa
:040090006c050000fb
:020000040000fa
:040094006c050000f7
:020000040000fa
:040098006c050000f3
:020000040000fa
:04009c006c050000ef
:020000040000fa
:0400a0006c050000eb
:020000040000fa
:0400a4006c050000e7
:020000040000fa
:0400a8006c050000e3
:020000040000fa
:0400ac006c050000df
:020000040000fa
:0400b0006c050000db
:020000040000fa
:0400b4006c050000d7
:020000040000fa
:0400b8006c050000d3
:020000040000fa
:0400bc006c050000cf
:020000040000fa
:0400c0006c050000cb
:020000040000fa
:0400c4006c050000c7
:020000040000fa
:0400c8006c050000c3
:020000040000fa
:0400cc006c050000bf
:020000040000fa
:0400d0006c050000bb
:020000040000fa
:0400d4006c050000b7
:020000040000fa
:0400d8006c050000b3
:020000040000fa
:0400dc006c050000af
:020000040000fa
:0400e0006c050000ab
:020000040000fa
:0400e4006c050000a7
:020000040000fa
:0400e8006c050000a3
:020000040000fa
:0400ec006c0500009f
:020000040000fa
:0400f0006c0500009b
:020000040000fa
:0400f4006c05000097
:020000040000fa
:0400f8006c05000093
:020000040000fa
:0400fc006c0500008f
:020000040000fa
:040100006c0500008a
:020000040000fa
:040104006c05000086
:020000040000fa
:040108006c05000082
:020000040000fa
:04010c006c0500007e
:020000040000fa
:040110006c0500007a
:020000040000fa
:040114006c05000076
:020000040000fa
:040118006c05000072
:020000040000fa
:04011c006c0500006e
:020000040000fa
:040120006c0500006a
:020000040000fa
:040124006c05000066
:020000040000fa
:040128006c05000062
:020000040000fa
:04012c006c0500005e
:020000040000fa
:040130006c0500005a
:020000040000fa
:040134006c05000056
:020000040000fa
:040138006c05000052
:020000040000fa
:04013c006c0500004e
:020000040000fa
:040140006c0500004a
:020000040000fa
:040144006c05000046
:020000040000fa
:040148006c05000042
:020000040000fa
:04014c006c0500003e
:020000040000fa
:040150006c0500003a
:020000040000fa
:040154006c05000036
:020000040000fa
:040158006c05000032
:020000040000fa
:04015c006c0500002e
:020000040000fa
:040160006c0500002a
:020000040000fa
:040164006c05000026
:020000040000fa
:040168006c05000022
:020000040000fa
:04016c006c0500001e
:020000040000fa
:040170006c0500001a
:020000040000fa
:040174006c05000016
:020000040000fa
:040178006c05000012
:020000040000fa
:04017c006c0500000e
:020000040000fa
:040180006c0500000a
:020000040000fa
:040184006c05000006
:020000040000fa
:040188006c05000002
:020000040000fa
:04018c006c050000fe
:020000040000fa
:040190006c050000fa
:020000040000fa
:040194006c050000f6
:020000040000fa
:040198006c050000f2
:020000040000fa
:04019c006c050000ee
:020000040000fa
:0401a0006c050000ea
:020000040000fa
:0401a4006c050000e6
:020000040000fa
:0401a8006c050000e2
:020000040000fa
:0401ac006c050000de
:020000040000fa
:0401b0006c050000da
:020000040000fa
:0401b4006c050000d6
:020000040000fa
:0401b8006c050000d2
:020000040000fa
:0401bc006c050000ce
:020000040000fa
:0401c0006c050000ca
:020000040000fa
:0401c4006c050000c6
:020000040000fa
:0401c8006c050000c2
:020000040000fa
:0401cc006c050000be
:020000040000fa
:0401d0006c050000ba
:020000040000fa
:0401d4006c050000b6
:020000040000fa
:0401d8006c050000b2
:020000040000fa
:0401dc006c050000ae
:020000040000fa
:0401e0006c050000aa
:020000040000fa
:0401e4006c050000a6
:020000040000fa
:0401e8006c050000a2
:020000040000fa
:0401ec006c0500009e
:020000040000fa
:0401f0006c0500009a
:020000040000fa
:0401f4006c05000096
:020000040000fa
:0401f8006c05000092
:020000040000fa
:0401fc006c0500008e
:020000040000fa
:040200006c05000089
:020000040000fa
:040204006c05000085
:020000040000fa
:040208006c05000081
:020000040000fa
:04020c006c0500007d
:020000040000fa
:040210006c05000079
:020000040000fa
:040214006c05000075
:020000040000fa
:040218006c05000071
:020000040000fa
:04021c006c0500006d
:020000040000fa
:040220006c05000069
:020000040000fa
:040224006c05000065
:020000040000fa
:040228006c05000061
:020000040000fa
:04022c006c0500005d
:020000040000fa
:040230006c05000059
:020000040000fa
:040234006c05000055
:020000040000fa
:040238006c05000051
:020000040000fa
:04023c006c0500004d
:020000040000fa
:040240006c05000049
:020000040000fa
:040244006c05000045
:020000040000fa
:040248006c05000041
:020000040000fa
:04024c006c0500003d
:020000040000fa
:040250006c05000039
:020000040000fa
:040254006c05000035
:020000040000fa
:040258006c05000031
:020000040000fa
:04025c006c0500002d
:020000040000fa
:040260006c05000029
:020000040000fa
:040264006c05000025
:020000040000fa
:040268006c05000021
:020000040000fa
:04026c006c0500001d
:020000040000fa
:040270006c05000019
:020000040000fa
:040274006c05000015
:020000040000fa
:040278006c05000011
:020000040000fa
:04027c006c0500000d
:020000040000fa
:040280006c05000009
:020000040000fa
:10040000ef9e22000eff27000e0188000000000072
:10041000000020000000e000020032000001200087
:100420002002880014000700ad0107000000e00072
:1004300003003a00408b2600010020000200370034
:100440000000200001002000810f70000100320038
:100450000f000700000020000000e0000200320052
:100460000000020000000000467b020000000000c7
:100470000040da000000fe0040e022000000e00042
:1004800002003200002020009001880000000600d9
:10049000a1028800800478000000eb001f003700f4
:1004a000e284440054a0b4009905ba00e2844400f8
:1004b00054a0b4009906ba00e284440054a0b400e9
:1004c0000006eb00476fde00fd07b200ae018800ba
:1004d000636ce10003003a000ad801000000eb0061
:1004e0000e003700606ce10008003a00004deb00a0
:1004f0000a05e800020039003420ec000af0a000f0
:100500008b05e900f9ff3e00040037006168e10057
:10051000010032000086eb000b00070019c7ba008b
:100520000e04e0001905ba0003003a000a00e000da
:10053000dbff3a0000000600fe07b200ae028800b2
:100540008a047800f5ff37000cd0a300e20f4d00bd
:100550001c00390089027800354dba000a05e80010
:10056000020039003420ec000af0a0008b05e900fd
:100570000f003200254dba000a05e80002003900dc
:100580003420ec000af0a0008b05e90008003200de
:100590000c00e0000600320015cdba000a05e800a4
:1005a000020039003420ec000af0a0008b05e900bd
:1005b0008984e80054a0b4000b00e000e2ff3a0098
:1005c000000006009902ba00055d78008b05e9007d
:1005d000f7ff3200c82ade00055d78008b05e900d0
:1005e000f3ff32000c00e000f1ff320019ddba0029
:1005f000eeff37006079040000000000627904001b
:100600000000000066790400000000006a79040020
:10061000000000006e790400000000007279040000
:1006200000000000005c0400000000007c5a040090
:1006300000000000a65a040000000000aa5a0400ae
:1006400000000000c85a040000000000fc4c040038
:10065000000000005252040000000000764d04002b
:10066000000000000c4d0400000000003a5104009e
:10067000000000007650040000000000e24e04007c
:1006800000000000404e0400000000009c4d0400eb
:100690000000000072440400000000007e430400db
:1006a00000000000fa43040000000000a04704001e
:1006b0000000000028790400000000002e790400ea
:1006c000000000003e7904000000000044790400ae
:1006d00000000000d25e0400000000005e7804000c
:1006e000000000006878040000000000807804002a
:1006f000000000009a780400000000001c7a04004a
:1007000000000000287a040000000000d45e04000d
:1007100000000000da5e040000000000347a0400eb
:10072000000000009c72040000000000e27204005f
:1007300000000000f272040000000000b873040022
:1007400000000000ea73040000000000f4730400dd
:100750000000000010740400000000002c7404006d
:10076000000000007a760400000000008a76040091
:10077000000000009476040000000000a876040049
:1007800000000000ba76040000000000967a040021
:1007900000000000a07a040000000000aa7a040013
:1007a000000000000666040000000000f866040077
:1007b0000000000016670400000000003e6704000f
:1007c000000000006a67040000000000de62040010
:1007d00000000000d663040000000000e263040093
:1007e000000000000e640400000000003c640400ef
:1007f00000000000da6e040000000000306f04000a
:10080000000000003c6f0400000000006c6f04005a
:1008100000000000a46f040000000000ae7504009a
:1008200000000000de75040000000000ea7504000e
:10083000000000002477040000000000507704004e
:10084000000000005a77040000000000527104000c
:10085000000000008271040000000000907104009c
:1008600000000000b071040000000000d47104001a
:10087000000000007477040000000000a07704006e
:1008800000000000aa770400000000000a6c0400c9
:10089000000000008c6c040000000000aa6c040042
:1008a00000000000c66c040000000000e26c0400c0
:1008b00000000000f26a040000000000a86b0400c1
:1008c00000000000ba6b040000000000c0740400c7
:1008d00000000000da74040000000000e47404006a
:1008e00000000000047504000000000028750400ea
:1008f0000000000074640400000000002265040091
:100900000000000036650400000000007665040069
:1009100000000000e265040000000000066d040015
:10092000000000007c6d040000000000886d0400e1
:1009300000000000b06d040000000000e06d040045
:1009400000000000e878040000000000f2780400d5
:100950000000000006790400000000001e79040079
:100960000000000092790400000000009e7904005d
:1009700000000000a879040000000000d66904000f
:1009800000000000786a040000000000966a04007d
:1009900000000000b26a040000000000ce6a0400fb
:1009a00000000000c279040000000000d4790400b7
:1009b00000000000de790400000000008e670400e3
:1009c0000000000008680400000000001c6804002b
:1009d000000000004c68040000000000886804006b
:1009e00000000000223b040000000000a83a0400c0
:1009f000000000002e3d040000000000fe3d040049
:100a0000000000007a430400000000003600f800f7
:100a1000809fbe00829fbe00849fbe00869fbe0056
:100a20003200f8003400f80010002000a001880017
:100a3000002020009001880000000000ae35070073
:100a400001a8a9003400f9003200f9004f03be00ec
:100a50004f02be004f01be004f00be003600f9003d
:100a6000004006003600f800c028a9000000eb0096
:100a7000113b07003600f8000a3b0700c048a900f8
:100a8000100020000c3b07003600f800c068a900e9
:100a900020002000083b07003600f800c088a900ad
:100aa00030002000043b07003600f800c0a8a90071
:100ab00040002000003b07003600f800c608a900ef
:100ac00070002000fc3a07003600f800c488a90036
:100ad000a0002000f83a07000040da000000fe0005
:100ae000000005008f1fd100cd0007008f87e900af
:100af0000000e00000000600809feb00c800070037
:100b00008f87e9000000e0000000060014002000cc
:100b1000fe003700f4ff2f00fc0037000003be008a
:100b20004d0007006011b8000470a70007f0a10095
:100b30006509b1001b00320012003500860220005a
:100b40000628e10008003500f3ff2700f2ff2f0020
:100b50006110b9000700e00018003b000300280006
:100b60006000b800020005000000400081804800dd
:100b700002014900838149008502e900faff3a0039
:100b800008003700f88f420002003c008000eb00b4
:100b9000000005008100d1000080d3008502e8003c
:100ba000fcff3a000700e00004003b00600010007a
:100bb000e080180060011900e081190000000600c3
:100bc0000001be00240007000470a70003f0a1008c
:100bd0006509b100160032000d0035006828e100fb
:100be00006003500f0ff2f00f1ff27000300e000b2
:100bf00013003b0001002800000005000000400039
:100c0000818048008502e900fcff3a0008003700b7
:100c1000f88f420002003c008000eb00000005005d
:100c20008100d1000080d3008502e800fcff3a007b
:100c30000300e00002003b0060001000e0801800ac
:100c4000000006004f89de0082017800ca003700ec
:100c50006011b800d8003700c70ade00f107b20003
:100c6000f50fb20008003200e1cf4200020032006e
:100c70000170a00024000500810f70000100320007
:100c80000408050044000500810f700002003a00ce
:100c9000140005008502e9000000400081c0480002
:100ca000fcff3b000170a00024000500889fbe00ef
:100cb0008a9fbe008c1f7800140107001b013300bf
:100cc00003866c006450e100240032006420e100df
:100cd000270032006150e100220032006120e10073
:100ce000210032008b854200eb07b1000134b800cf
:100cf000003ab8000804420089844a00013ab8006a
:100d00000030b8008880400009014a000400330028
:100d10000000400081804800020149008b05e90085
:100d2000c909dd00830170000100320013002000ba
:100d3000c814de004814dd004709de001200b200ce
:100d4000c808de0008847000ca00070001f0a10096
:100d50000cf0a70001f0a000fd0037006120e100c9
:100d6000ff0032000801be000200be00f7ff37009e
:100d70006150e100fcff3a00f9003700889fbe0097
:100d80008a9fbe008c1f78000006eb00e00f500029
:100d9000e08f5800e00f5900e08f590007003d0038
:100da0006044b8006055b8000000540081805c00c9
:100db00002015d0083815d001c002000e00f5200f5
:100dc000e08f5a00e00f5b00e08f5b0007003d0002
:100dd0006044b8006055b8000402540085825c008d
:100de00006035d0087835d000c00a200df000700a2
:100df0000c00e000060032006022b8006033b8004a
:100e00000000520081805a0002015b0083815b0078
:100e10004f0678004f05be004f04be0000000600dc
:100e2000889fbe008a9fbe008c9fbe000404be0047
:100e30000605be00809fbe00829fbe002100070005
:100e4000040678000800be000a01be001d0007006d
:100e5000840678004f03be004f02be008d4f76001f
:100e60007fb0970013003300f0ff2f008b8f6b00d3
:100e700006003b000d0666000c00a7000a003700c4
:100e800007f0a600100020000a003700880f52006b
:100e9000898f5a008a0f5b008b8f5b00030039003b
:100ea0001000200001003e000000200007f0a70015
:100eb0000000ea004f06be004f05be004f04be0012
:100ec0000000060005ff27000582610007003200d0
:100ed0000428e1000100320024000500060007009c
:100ee00001003a0044000500040805000200070064
:100ef000f9ff3a00140005006f8261008102700062
:100f0000850271008502720000000600889fbe0005
:100f10008a9fbe00841f78007c0007004f00780085
:100f200011003300f0ff2f00838f6c0006003b00a0
:100f3000040565000a00a7000800370009f0a600b4
:100f40001000200008003700820f5400838f5c00df
:100f5000030039001000200001003e0000002000c6
:100f600009f0a7000000ea004f05be004f04be00d4
:100f70000000e00000000600881f780003047800ed
:100f80000300e00007003d0060001000e080180052
:100f900060011900e081190002003b0001f02d0002
:100fa000030037000400070008f0a70001f0a000cc
:100fb0004f04780000000600889fbe008a9fbe0094
:100fc0000082700004027100048271002600320069
:100fd0000004be000200be006011b8006b092000d2
:100fe000950220000182cf000a0039000541b100be
:100ff0000082cf00070039000541b1000982cf000f
:10100000040039000541b1000882cf000100390019
:101010000541b10005425200120032000a003b00b7
:1010200082817100610164008100d1000080d300e1
:101030008984d3000884d3008b05e8000442e800cb
:10104000f7ff3a00070037000804440089844c0089
:1010500000004800818048008b05e9000442e90057
:10106000f9ff3a00030007004f05be004f04be0021
:101070000000060081002000618055000b003d004b
:101080000b00200061fe2f000100e1001d00340074
:1010900082817100610164008904d1000884d30059
:1010a0000000e800faff3a007100200061006400cf
:1010b0000300700002006000090032006104440077
:1010c000e0844c000988a500050032008b05e8008b
:1010d0006808e10002003a008904d1000884d300c6
:1010e000f20f20000258e10005003d00c75ddd0061
:1010f000f907b2008980750008007800000006003a
:101100000bf827008b007800000005000004be00eb
:10111000d1fe07000003be000405be000200be00b1
:10112000cdfe0700844f7500000006000200be00df
:101130006450e100050036006420e1000200360042
:101140000968a30001003a000800be000160a00089
:101150004f0678004f05be004f04be000000060099
:10116000f0ff2f00f1ff2700f9ff3700889fbe0036
:101170008a9fbe008c9fbe000404b8000506b8001c
:101180008904460060854e000606b8000a05460040
:10119000e0854e000706b8008b054600040eb80037
:1011a000890446000a854e00e0854d00050eb80012
:1011b0000a0546008b854e00060eb8008b054600da
:1011c0000416b8000a0546008b854e000516b800c7
:1011d0008b054600041eb8008b0546000800be00c3
:1011e0000a01be004f06be004f05be004f04be0000
:0411f00000000600f5
:020000040000fa
:1011f400000b000010140000171900001c1e000052
:101204002022000024260000272900002a2c0000a8
:101214002d2f00003031000033340000353600003b
:10122400373900003a3b00003c3d00003e3f0000df
:10123400404100004243000044450000464700008e
:1012440048480000494a00004b4c00004d4e000045
:101254004e4f000050510000525200005354000001
:10126400555500005657000058580000595a0000c0
:101274005b5b00005c5d00005d5e00005f5f000082
:101284006061000061620000636300006465000047
:10129400656600006667000068680000696a00000f
:1012a4006a6b00006b6c00006d6d00006e6e0000d8
:1012b4006f6f0000707100007172000072730000a3
:1012c4007374000074750000767600007777000070
:1012d40078780000797900007a7a00007b7b00003e
:1012e4007c7c00007d7d00007e7e00007f7f00000e
:1012f4007f7f00007f7e00007e7d00007d7c0000fb
:101304007c7b00007b7a00007a7900007978000009
:10131400787700007776000076750000747400001a
:10132400737300007272000071710000706f00002e
:101334006f6e00006e6d00006d6c00006b6b000042
:101344006a6a000069680000686700006666000059
:101354006565000064630000636200006161000071
:10136400605f00005f5e00005d5d00005c5b00008c
:101374005b5a0000595800005857000056550000a9
:10138400555400005352000052510000504f0000c9
:101394004e4e00004d4c00004b4a000049480000ee
:1013a4004847000046450000444300004241000015
:1013b400403f00003e3d00003c3b00003a39000045
:1013c400373600003534000033310000302f000080
:1013d4002d2c00002a2900002726000024220000ca
:1013e400201e00001c19000017140000100b000040
:1013f4000000000000000000500b0000001000007e
:1014040099130000a11600004c190000b61b00003f
:10141400ef1d000000200000f1210000c7230000a0
:101424008625000031270000cb280000552a000043
:10143400d12b0000412d0000a62e0000003000003a
:101444005131000099320000d933000011350000f9
:10145400423600006d37000092380000b0390000b9
:10146400ca3a0000de3b0000ed3c0000f83d0000fd
:10147400fe3e000000400000fe400000f841000075
:10148400ef420000e2430000d2440000be450000e9
:10149400a74600008e470000714800005249000032
:1014a400304a00000c4b0000e54b0000bc4c00002f
:1014b400904d0000624e0000324f000000500000ca
:1014c400cc500000965100005d52000023530000f0
:1014d400e8530000aa5400006b5500002a5600008f
:1014e400e7560000a35700005d580000165900009d
:1014f400cd590000825a0000375b0000ea5b00000f
:101504009b5c00004c5d0000fb5d0000a85e0000d9
:10151400555f000000600000aa60000053610000f5
:10152400fb610000a162000047630000ec6300005f
:101534008f64000031650000d3650000736600000d
:1015440013670000b16700004f680000eb680000fb
:1015540087690000226a0000bc6a0000556b000025
:10156400ed6b0000846c00001b6d0000b16d000089
:10157400466e0000da6e00006d6f0000007000001f
:101584009270000023710000b471000043720000e7
:10159400d272000061730000ee7300007b740000df
:1015a40008750000937500001e760000a9760000ff
:1015b40033770000bc77000044780000cc7800004a
:1015c40053790000da790000607a0000e67a0000be
:1015d4006b7b0000ef7b0000737c0000f77c000055
:1015e4007a7d0000fc7d00007e7e0000ff7e00000e
:1015f400807f0000ff7f0000807f0000ff7e0000ee
:101604007e7e0000fc7d00007a7d0000f77c0000f7
:10161400737c0000ef7b00006b7b0000e67a000027
:10162400607a0000da79000053790000cc78000079
:1016340044780000bc77000033770000a9760000ee
:101644001e76000093750000087500007b7400008e
:10165400ee73000061730000d27200004372000058
:10166400b47100002371000092700000007000004b
:101674006d6f0000da6e0000466e0000b16d000070
:101684001b6d0000846c0000ed6b0000556b0000c6
:10169400bc6a0000226a000087690000eb68000051
:1016a4004f680000b1670000136700007366000014
:1016b400d3650000316500008f640000ec63000016
:1016c40047630000a1620000fb6100005361000059
:1016d400aa60000000600000555f0000a85e0000e2
:1016e400fb5d00004c5d00009b5c0000ea5b0000b9
:1016f400375b0000825a0000cd59000016590000e3
:101704005d580000a3570000e75600002a56000069
:101714006b550000aa540000e85300002353000056
:101724005d52000096510000cc50000000500000b3
:10173400324f0000624e0000904d0000bc4c00008f
:10174400e54b00000c4b0000304a000052490000f9
:10175400714800008e470000a7460000be45000007
:10176400d2440000e2430000ef420000f8410000d0
:10177400fe40000000400000fe3e0000f83d000076
:10178400ed3c0000de3b0000ca3a0000b039000026
:10179400923800006d370000423600001135000019
:1017a400d9330000993200005131000000300000ac
:1017b400a62e0000412d0000d12b0000552a000068
:1017c400cb2800003127000086250000c723000035
:1017d400f121000000200000ef1d0000b61b0000f6
:1017e4004c190000a116000099130000001000001d
:1017f400500b00000000000000000000000000008a
:10180400334f0000500b00000000000000100000e7
:10181400148e000098130000669e0000a0160000bd
:101824003b5800004c190000e87a0000b61b000089
:1018340011ea0000ee1d000000000000002000007e
:101844009aed0000f021000037ef0000c6230000ed
:10185400b3f8000085250000281c00003127000093
:10186400beca0000ca28000054ff0000542a000029
:10187400a45b0000d12b0000cd3c0000412d0000f2
:101884001bca0000a52e000000000000003000006c
:101894004ab800005031000076b0000098320000d1
:1018a400948e0000d833000028e5000010350000b5
:1018b4003936000042360000d1f500006c370000d4
:1018c400008c00009138000089560000b0390000f7
:1018d4003caa0000c93a000023d40000dd3b00000c
:1018e400731a0000ed3c000063bd0000f73d0000ea
:1018f400d7f70000fd3e000000000000004000009b
:10190400d9070000fe4000009b3d0000f8410000a4
:101914001fcc0000ee42000033db0000e143000076
:10192400e98f0000d1440000d20c0000be45000045
:101934003e720000a74600006ede00008d470000e6
:10194400c36d000071480000e43a000052490000f1
:10195400e55e0000304a000065f100000b4b00001a
:10196400b1080000e54b0000d6b90000bb4c0000f4
:10197400c1180000904d000050380000624e000075
:10198400672a0000324f00000000000000500000f1
:101994003fc90000cb5000007c9500009551000029
:1019a400567300005d520000b9700000235300001c
:1019b400ef9a0000e7530000a7fe0000a9540000be
:1019c40001a800006a55000093a2000029560000f7
:1019d40075f90000e656000049b70000a257000060
:1019e4003de600005c580000169000001559000008
:1019f40034be0000cc5900009a790000825a0000dd
:101a0400efca0000365b000086ba0000e95b000004
:101a1400615000009b5c0000379400004b5d0000a7
:101a2400768d0000fa5d000046430000a85e0000c9
:101a340091bc0000545f0000000000000060000042
:101a440002140000aa600000cefe000052610000f3
:101a540064c60000fa61000094700000a1620000f6
:101a6400fa0200004763000005830000eb630000f6
:101a7400f9f500008e640000eb60000031650000a1
:101a8400cdc80000d2650000663200007366000015
:101a94005aa2000012670000291d0000b16700006f
:101aa4002ea700004e680000a8440000eb68000068
:101ab400b4f900008669000050ca0000216a0000e1
:101ac4005eba0000bb6a0000a6cd0000546b0000a3
:101ad400d1070000ed6b0000726c0000846c000004
:101ae40001ff00001a6d0000e1c20000b06d0000ab
:101af4005abb0000456e0000a1eb0000d96e000047
:101b0400d55600006d6f000000000000007000005a
:101b140018ea000091700000001800002371000012
:101b24008a8c0000b3710000754a00004372000003
:101b34006d540000d272000012ad0000607300000a
:101b4400ee560000ee730000825400007b74000027
:101b54003aa800000775000078540000937500004f
:101b64008d5b00001e760000bfbf0000a876000059
:101b7400438300003277000046a80000bb770000d2
:101b8400e430000044780000311f0000cc780000ed
:101b94003475000053790000e6340000da7900005f
:101ba4003a600000607a000015f90000e57a000050
:101bb400530100006b7b0000c57a0000ef7b00003e
:101bc40034670000737c00005dc80000f67c0000f0
:101bd400f79f0000797d0000aeef0000fb7d000060
:101be40026b900007d7e0000fbfd0000fe7e0000a3
:101bf400c0bf00007f7f0000ffff0000ff7f0000e8
:101c0400c0bf00007f7f0000fbfd0000fe7e0000df
:101c140026b900007d7e0000aeef0000fb7d0000d1
:101c2400f79f0000797d00005dc80000f67c00008d
:101c340034670000737c0000c57a0000ef7b00006d
:101c4400530100006b7b000015f90000e57a0000e9
:101c54003a600000607a0000e6340000da7900009f
:101c64003475000053790000311f0000cc78000067
:101c7400e43000004478000046a80000bb77000070
:101c84004383000032770000bfbf0000a876000045
:101c94008d5b00001e7600007854000093750000f0
:101ca4003aa8000007750000825400007b7400000d
:101cb400ee560000ee73000012ad000060730000e9
:101cc4006d540000d2720000754a00004372000097
:101cd4008a8c0000b371000000180000237100001a
:101ce40018ea00009170000000000000007000007d
:101cf400d55600006d6f0000a1eb0000d96e000006
:101d04005abb0000456e0000e1c20000b06d000047
:101d140001ff00001a6d0000726c0000846c00006a
:101d2400d1070000ed6b0000a6cd0000546b00004d
:101d34005eba0000bb6a000050ca0000216a0000bd
:101d4400b4f9000086690000a8440000eb680000b4
:101d54002ea700004e680000291d0000b167000096
:101d64005aa2000012670000663200007366000089
:101d7400cdc80000d2650000eb60000031650000b2
:101d8400f9f500008e64000005830000eb63000099
:101d9400fa0200004763000094700000a162000092
:101da40064c60000fa610000cefe0000526100002b
:101db40002140000aa60000000000000006000009f
:101dc40091bc0000545f000046430000a85e000080
:101dd400768d0000fa5d0000379400004b5d000032
:101de400615000009b5c000086ba0000e95b0000c3
:101df400efca0000365b00009a790000825a0000a6
:101e040034be0000cc5900001690000015590000a3
:101e14003de600005c58000049b70000a2570000ee
:101e240075f90000e656000093a200002956000050
:101e340001a800006a550000a7fe0000a954000094
:101e4400ef9a0000e7530000b9700000235300002c
:101e5400567300005d5200007c950000955100000f
:101e64003fc90000cb5000000000000000500000fb
:101e7400672a0000324f000050380000624e000014
:101e8400c1180000904d0000d6b90000bb4c000002
:101e9400b1080000e54b000065f100000b4b0000a9
:101ea400e55e0000304a0000e43a000052490000b8
:101eb400c36d0000714800006ede00008d47000015
:101ec4003e720000a7460000d20c0000be45000090
:101ed400e98f0000d144000033db0000e14300003f
:101ee4001fcc0000ee4200009b3d0000f8410000c2
:101ef400d9070000fe400000000000000040000080
:101f0400d7f70000fd3e000063bd0000f73d000070
:101f1400731a0000ed3c000023d40000dd3b0000f8
:101f24003caa0000c93a000089560000b0390000fc
:101f3400008c000091380000d1f500006c370000df
:101f4400393600004236000028e500001035000054
:101f5400948e0000d833000076b000009832000060
:101f64004ab80000503100000000000000300000ba
:101f74001bca0000a52e0000cd3c0000412d00002e
:101f8400a45b0000d12b000054ff0000542a000081
:101f9400beca0000ca280000281c00003127000027
:101fa400b3f800008525000037ef0000c6230000c9
:101fb4009aed0000f0210000000000000020000065
:101fc40011ea0000ee1d0000e87a0000b61b0000d4
:101fd4003b5800004c190000669e0000a01600004b
:101fe400148e000098130000000000000010000090
:101ff400334f0000500b0000000000000000000000
:102004007f7f00007f7f00007f7f00007f7f0000d4
:102014007f7f00007f7f00007f7f00007f7f0000c4
:102024007f7f00007f7f00007f7f00007f7f0000b4
:102034007f7f00007f7f00007f7f00007f7f0000a4
:102044007f7f00007f7f00007f7f00007f7f000094
:102054007f7f00007f7f00007f7f00007f7f000084
:102064007f7f00007f7f00007f7f00007f7f000074
:102074007f7f00007f7f00007f7f00007f7f000064
:102084007f7f00007f7f00007f7f00007f7f000054
:102094007f7f00007f7f00007f7f00007f7f000044
:1020a4007f7f00007f7f00007f7f00007f7f000034
:1020b4007f7f00007f7f00007f7f00007f7f000024
:1020c4007f7f00007f7f00007f7f00007f7f000014
:1020d4007f7f00007f7f00007f7f00007f7f000004
:1020e4007f7f00007f7f00007f7f00007f7f0000f4
:1020f4007f7f00007f7f00007f7f00007f7f0000e4
:102104007f7f00007f7f00007e7e00007d7d0000d9
:102114007c7c00007b7b00007a7a00007a790000e6
:1021240079780000787700007777000076760000f1
:1021340075750000757400007474000073730000fa
:102144007272000072710000717100007070000002
:10215400706f00006f6f00006e6e00006e6d000007
:102164006d6d00006d6c00006c6c00006b6b00000a
:102174006b6a00006a6a00006a690000696900000d
:10218400696800006868000067670000676700000e
:10219400666600006666000065650000656500000f
:1021a400646400006464000063630000636300000f
:1021b400636200006262000062610000616100000d
:1021c4006161000060600000606000005f5f00000b
:1021d4005f5f00005f5e00005e5e00005e5e000008
:1021e4005d5d00005d5d00005d5d00005c5c000005
:1021f4005c5c00005c5b00005b5b00005b5b000000
:102204005b000000ff7f0000ff7f0000ff7f0000f5
:10221400ff7f0000ff7f0000ff7f0000ff7f0000c2
:10222400ff7f0000ff7f0000ff7f0000ff7f0000b2
:10223400ff7f0000ff7f0000ff7f0000ff7f0000a2
:10224400ff7f0000ff7f0000ff7f0000ff7f000092
:10225400ff7f0000ff7f0000ff7f0000ff7f000082
:10226400ff7f0000ff7f0000ff7f0000ff7f000072
:10227400ff7f0000ff7f0000ff7f0000ff7f000062
:10228400ff7f0000ff7f0000ff7f0000ff7f000052
:10229400ff7f0000ff7f0000ff7f0000ff7f000042
:1022a400ff7f0000ff7f0000ff7f0000ff7f000032
:1022b400ff7f0000ff7f0000ff7f0000ff7f000022
:1022c400ff7f0000ff7f0000ff7f0000ff7f000012
:1022d400ff7f0000ff7f0000ff7f0000ff7f000002
:1022e400ff7f0000ff7f0000ff7f0000ff7f0000f2
:1022f400ff7f0000ff7f0000ff7f0000ff7f0000e2
:10230400ff7f0000ff7f0000ff7f0000ff7f0000d1
:10231400ff7f0000ff7f0000ff7f0000ff7f0000c1
:10232400ff7f0000ff7f0000ff7f0000ff7f0000b1
:10233400ff7f0000ff7f0000ff7f0000ff7f0000a1
:10234400ff7f0000ff7f0000ff7f0000ff7f000091
:10235400ff7f0000ff7f0000ff7f0000ff7f000081
:10236400ff7f0000ff7f0000ff7f0000ff7f000071
:10237400ff7f0000ff7f0000ff7f0000ff7f000061
:10238400ff7f0000ff7f0000ff7f0000ff7f000051
:10239400ff7f0000ff7f0000ff7f0000ff7f000041
:1023a400ff7f0000ff7f0000ff7f0000ff7f000031
:1023b400ff7f0000ff7f0000ff7f0000ff7f000021
:1023c400ff7f0000ff7f0000ff7f0000ff7f000011
:1023d400ff7f0000ff7f0000ff7f0000ff7f000001
:1023e400ff7f0000ff7f0000ff7f0000ff7f0000f1
:1023f400ff7f0000ff7f0000ff7f0000ff7f0000e1
:10240400ff7f0000ff7f0000817f0000037f00004a
:10241400877e00000c7e0000927d00001a7d000083
:10242400a37c00002e7c0000b97b0000467b0000ea
:10243400d57a0000647a0000f579000087790000fd
:102444001a790000ae78000043780000da770000c3
:10245400717700000a770000a37600003e76000042
:10246400d97500007675000014750000b274000080
:1024740052740000f273000093730000367300007e
:10248400d97200007d72000021720000c771000043
:102494006e71000015710000bd70000066700000d0
:1024a40010700000ba6f0000666f0000126f000029
:1024b400be6e00006c6e00001a6e0000c96d000054
:1024c400786d0000296d0000da6c00008b6c000050
:1024d4003d6c0000f06b0000a46b0000586b000022
:1024e4000d6b0000c26a0000786a00002f6a0000c9
:1024f400e66900009e690000566900000f6900004b
:10250400c9680000836800003e680000f9670000a5
:10251400b4670000716700002d670000ea660000e0
:10252400a86600006666000025660000e4650000f9
:10253400a46500006465000025650000e6640000f1
:10254400a7640000696400002c640000ef630000cd
:10255400b2630000766300003a630000fe6200008c
:10256400c3620000896200004f620000156200002f
:10257400db610000a26100006a61000032610000ba
:10258400fa600000c26000008b600000546000002c
:102594001e600000e85f0000b25f00007d5f000085
:1025a400485f0000135f0000df5e0000ab5e0000c8
:1025b400785e0000445e0000115e0000df5d0000f4
:1025c400ac5d00007a5d0000495d0000175d00000d
:1025d400e65c0000b55c0000855c0000555c000012
:1025e400255c0000f55b0000c65b0000975b000003
:1025f400685b00003a5b00000b5b0000de5a0000e1
:10260400b05a0000825a0000ffff0000ff7f000064
:10261400ffff0000ff7f0000ffff0000ff7f0000be
:10262400ffff0000ff7f0000ffff0000ff7f0000ae
:10263400ffff0000ff7f0000ffff0000ff7f00009e
:10264400ffff0000ff7f0000ffff0000ff7f00008e
:10265400ffff0000ff7f0000ffff0000ff7f00007e
:10266400ffff0000ff7f0000ffff0000ff7f00006e
:10267400ffff0000ff7f0000ffff0000ff7f00005e
:10268400ffff0000ff7f0000ffff0000ff7f00004e
:10269400ffff0000ff7f0000ffff0000ff7f00003e
:1026a400ffff0000ff7f0000ffff0000ff7f00002e
:1026b400ffff0000ff7f0000ffff0000ff7f00001e
:1026c400ffff0000ff7f0000ffff0000ff7f00000e
:1026d400ffff0000ff7f0000ffff0000ff7f0000fe
:1026e400ffff0000ff7f0000ffff0000ff7f0000ee
:1026f400ffff0000ff7f0000ffff0000ff7f0000de
:10270400ffff0000ff7f0000ffff0000ff7f0000cd
:10271400ffff0000ff7f0000ffff0000ff7f0000bd
:10272400ffff0000ff7f0000ffff0000ff7f0000ad
:10273400ffff0000ff7f0000ffff0000ff7f00009d
:10274400ffff0000ff7f0000ffff0000ff7f00008d
:10275400ffff0000ff7f0000ffff0000ff7f00007d
:10276400ffff0000ff7f0000ffff0000ff7f00006d
:10277400ffff0000ff7f0000ffff0000ff7f00005d
:10278400ffff0000ff7f0000ffff0000ff7f00004d
:10279400ffff0000ff7f0000ffff0000ff7f00003d
:1027a400ffff0000ff7f0000ffff0000ff7f00002d
:1027b400ffff0000ff7f0000ffff0000ff7f00001d
:1027c400ffff0000ff7f0000ffff0000ff7f00000d
:1027d400ffff0000ff7f0000ffff0000ff7f0000fd
:1027e400ffff0000ff7f0000ffff0000ff7f0000ed
:1027f400ffff0000ff7f0000ffff0000ff7f0000dd
:10280400ffff0000ff7f0000ffff0000ff7f0000cc
:10281400ffff0000ff7f0000ffff0000ff7f0000bc
:10282400ffff0000ff7f0000ffff0000ff7f0000ac
:10283400ffff0000ff7f0000ffff0000ff7f00009c
:10284400ffff0000ff7f0000ffff0000ff7f00008c
:10285400ffff0000ff7f0000ffff0000ff7f00007c
:10286400ffff0000ff7f0000ffff0000ff7f00006c
:10287400ffff0000ff7f0000ffff0000ff7f00005c
:10288400ffff0000ff7f0000ffff0000ff7f00004c
:10289400ffff0000ff7f0000ffff0000ff7f00003c
:1028a400ffff0000ff7f0000ffff0000ff7f00002c
:1028b400ffff0000ff7f0000ffff0000ff7f00001c
:1028c400ffff0000ff7f0000ffff0000ff7f00000c
:1028d400ffff0000ff7f0000ffff0000ff7f0000fc
:1028e400ffff0000ff7f0000ffff0000ff7f0000ec
:1028f400ffff0000ff7f0000ffff0000ff7f0000dc
:10290400ffff0000ff7f0000ffff0000ff7f0000cb
:10291400ffff0000ff7f0000ffff0000ff7f0000bb
:10292400ffff0000ff7f0000ffff0000ff7f0000ab
:10293400ffff0000ff7f0000ffff0000ff7f00009b
:10294400ffff0000ff7f0000ffff0000ff7f00008b
:10295400ffff0000ff7f0000ffff0000ff7f00007b
:10296400ffff0000ff7f0000ffff0000ff7f00006b
:10297400ffff0000ff7f0000ffff0000ff7f00005b
:10298400ffff0000ff7f0000ffff0000ff7f00004b
:10299400ffff0000ff7f0000ffff0000ff7f00003b
:1029a400ffff0000ff7f0000ffff0000ff7f00002b
:1029b400ffff0000ff7f0000ffff0000ff7f00001b
:1029c400ffff0000ff7f0000ffff0000ff7f00000b
:1029d400ffff0000ff7f0000ffff0000ff7f0000fb
:1029e400ffff0000ff7f0000ffff0000ff7f0000eb
:1029f400ffff0000ff7f0000ffff0000ff7f0000db
:102a0400ffff0000ff7f0000ffff0000ff7f0000ca
:102a1400c2be0000807f000023f60000027f000099
:102a2400ee9e0000867e000021b200000b7e0000b6
:102a3400e9280000927d0000a0fc0000197d000040
:102a4400ce260000a37c000023a100002d7c000002
:102a54007b650000b97b0000d86d0000467b000058
:102a640063b40000d47a00006b330000647a000081
:102a740064e50000f4790000e4c4000086790000f5
:102a8400a2cc00001979000078f70000ad780000ae
:102a94005f400000437800006ea20000d977000078
:102aa400dc18000071770000fb9e0000097700002d
:102ab4003a300000a376000024c800003d760000f0
:102ac4005d620000d9750000a4fa0000757500006d
:102ad400d18c000013750000d4140000b2740000ff
:102ae400b38e0000517400008df60000f1730000f5
:102af40096480000937300001881000035730000ad
:102b0400729c0000d8720000179700007c720000cd
:102b14008e6d000021720000721c0000c77100005d
:102b24006fa000006d71000044f6000014710000f5
:102b3400c21a0000bd700000cc0a000066700000dc
:102b440053c300000f7000005c410000ba6f000026
:102b5400f9810000656f00004c820000116f0000d5
:102b6400873f0000be6e0000e9b600006b6e0000f7
:102b7400c2e50000196e00006ec90000c86d0000b7
:102b8400565f0000786d0000f0a40000286d00007e
:102b9400c2970000d96c00005b3500008b6c00000c
:102ba400587b00003d6c000062670000f06b000081
:102bb4002bf70000a36b000074280000586b000082
:102bc40008f900000c6b0000ba660000c26a00003d
:102bd4006c6f0000786a0000071100002f6a000083
:102be4007e490000e6690000d01600009e690000de
:102bf40005770000566900002b6800000f6900008b
:102c04005ee80000c8680000c0f5000082680000ab
:102c14007c8e00003d680000c5b00000f86700002d
:102c2400d85a0000b4670000f98a000070670000f9
:102c3400733f00002d6700009b760000ea660000e9
:102c4400cb2e0000a86600006666000066660000e1
:102c5400d61b0000256600008c4d0000e4650000d2
:102c6400fff90000a3650000ae1f000064650000ca
:102c74001ebd000024650000dad00000e5640000f9
:102c840075590000a76400008555000069640000c0
:102c9400aac300002b64000087a20000ee630000ba
:102ca400c6f00000b163000016ad000075630000bb
:102cb4002bd6000039630000c26a0000fe620000e7
:102cc40098690000c362000073d1000088620000ac
:102cd4001da100004e62000064d7000014620000d1
:102ce4001d730000db61000020730000a26100007e
:102cf40049d60000696100007c9b0000316100003e
:102d04009ec10000f96000009b470000c260000003
:102d1400602c00008b600000e26e00005460000034
:102d2400170e00001e600000fc080000e85f0000b1
:102d3400905e0000b25f0000d60d00007d5f0000d1
:102d4400d5150000485f000099750000135f00006e
:102d5400302c0000df5e0000ac380000ab5e0000e9
:102d6400239a0000775e0000af4f0000445e00002d
:102d74006c580000115e00007ab30000de5d0000b4
:102d8400fd5f0000ac5d00001b5d00007a5d00008b
:102d9400fda90000485d0000d1450000175d00005a
:102da400c72f0000e65c000011670000b55c00005e
:102db400e6ea0000845c00007dba0000545c000078
:102dc40013d50000245c0000e5390000f55b000029
:102dd40035e80000c55b000046df0000965b00009c
:102de4005e1e0000685b0000c7a40000395b0000a1
:102df400cc7100000b5b0000bb840000dd5a0000b6
:102e0400e4dc0000af5a00009a790000825a000006
:102e140000030000060900000c1000001316000057
:102e2400191c00001f220000252800002b2e000082
:102e340031330000363900003c3f000041440000bb
:102e4400474900004c4e0000515300005558000003
:102e54005a5c00005e600000626400006668000066
:102e64006a6b00006d6f00007071000073740000e5
:102e740075760000787900007a7a00007b7c000087
:102e84007d7d00007e7e00007e7f00007f7f00004d
:102e94007f7f00007f7f00007e7e00007e7d00003b
:102ea4007d7c00007b7a00007a790000787600004f
:102eb4007574000073710000706f00006d6b00008a
:102ec4006a68000066640000626000005e5c0000e6
:102ed4005a58000055530000514e00004c49000060
:102ee40047440000413f00003c39000036330000f5
:102ef400312e00002b280000252200001f1c00009a
:102f040019160000131000000c090000060300004d
:102f140000fd0000faf70000f4f00000edea000004
:102f2400e7e40000e1de0000dbd80000d5d20000b9
:102f3400cfcd0000cac70000c4c10000bfbc000060
:102f4400b9b70000b4b20000afad0000aba80000f8
:102f5400a6a40000a2a000009e9c00009a98000075
:102f64009695000093910000908f00008d8c0000d6
:102f74008b8a000088870000868600008584000014
:102f8400838300008282000082810000818100002e
:102f94008181000081810000828200008283000020
:102fa400838400008586000086870000888a0000ec
:102fb4008b8c00008d8f0000909100009395000091
:102fc400969800009a9c00009ea00000a2a4000015
:102fd400a6a80000abad0000afb20000b4b700007b
:102fe400b9bc0000bfc10000c4c70000cacd0000c6
:102ff400cfd20000d5d80000dbde0000e1e4000001
:10300400e7ea0000edf00000f4f70000fafd00002c
:103014000000000000000000240300004806000037
:103024006a0900008c0c0000ab0f0000c8120000fd
:10303400e2150000f91800000b1c00001a1f000024
:103044002322000028250000262800001f2b000052
:10305400112e0000fb300000df330000ba36000000
:103064008c390000563c0000173f0000ce410000a0
:103074007a4400001c470000b44900003f4c0000a3
:10308400bf4e0000335100009b530000f555000073
:1030940042580000825a0000b35c0000d75e000072
:1030a400eb600000f1620000e8640000cf660000fd
:1030b400a66800006d6a0000236c0000c96d000062
:1030c4005e6f0000e270000054720000b5730000ef
:1030d40004750000417600006b77000084780000de
:1030e400897900007c7a00005c7b0000297c000068
:1030f400e37c0000897d00001d7e00009c7e0000b2
:10310400097f0000617f0000a67f0000d87f0000d7
:10311400f57f0000ff7f0000f57f0000d87f0000ee
:10312400a67f0000617f0000097f00009c7e0000f4
:103134001d7e0000897d0000e37c0000297c0000e6
:103144005c7b00007c7a00008979000084780000b0
:103154006b7700004176000004750000b573000031
:1031640054720000e27000005e6f0000c96d000040
:10317400236c00006d6a0000a6680000cf660000a2
:10318400e8640000f1620000eb600000d75e00001c
:10319400b35c0000825a000042580000f55500005c
:1031a4009b53000033510000bf4e00003f4c000011
:1031b400b44900001c4700007a440000ce410000de
:1031c400173f0000563c00008c390000ba3600005e
:1031d400df330000fb300000112e00001f2b000025
:1031e4002628000028250000232200001a1f0000c2
:1031f4000b1c0000f9180000e2150000c8120000c2
:10320400ab0f00008c0c00006a09000048060000a7
:103214002403000000000000dcfc0000b8f90000fa
:1032240096f6000074f3000055f0000038ed00003d
:103234001eea000007e70000f5e30000e6e00000f6
:10324400dddd0000d8da0000dad70000e1d40000a8
:10325400efd1000005cf000021cc000046c90000da
:1032640074c60000aac30000e9c0000032be00001a
:1032740086bb0000e4b800004cb60000c1b30000f7
:1032840041b10000cdae000065ac00000baa000007
:10329400bea700007ea500004da3000029a10000e8
:1032a400159f00000f9d0000189b0000319900003d
:1032b4005a97000093950000dd93000037920000b8
:1032c400a29000001e8f0000ac8d00004b8c00000b
:1032d400fc8a0000bf890000958800007c870000fc
:1032e4007786000084850000a4840000d783000052
:1032f4001d83000077820000e381000064810000e8
:10330400f78000009f8000005a80000028800000a1
:103314000b800000018000000b800000288000006a
:103324005a8000009f800000f78000006481000044
:10333400e3810000778200001d830000d783000032
:10334400a484000084850000778600007c87000048
:1033540095880000bf890000fc8a00004b8c0000a7
:10336400ac8d00001e8f0000a29000003792000078
:10337400dd930000939500005a97000031990000f6
:10338400189b00000f9d0000159f000029a100005c
:103394004da300007ea50000bea700000baa0000fc
:1033a40065ac0000cdae000041b10000c1b3000027
:1033b4004cb60000e4b8000086bb000032be00003a
:1033c400e9c00000aac3000074c6000046c900009a
:1033d40021cc000005cf0000efd10000e1d40000b3
:1033e400dad70000d8da0000dddd0000e6e00000f6
:1033f400f5e3000007e700001eea000038ed0000d6
:1034040055f0000074f3000096f60000b8f90000cf
:10341400dcfc0000000000000000000000000000d0
:10342400bf2a0000240300007cd9000047060000e6
:10343400499000006a0900005ed300008b0c000074
:103444002b270000ab0f00006e100000c812000014
:1034540044140000e21500003cb80000f818000015
:103464006a8200000b1c00007bf90000191f000099
:10347400c5a40000232200005d0c000028250000e4
:1034840028b9000026280000eb3400001f2b0000a0
:10349400620a0000112e00004dc50000fb30000040
:1034a40087f20000de33000013200000ba3600006b
:1034b40032dd00008c39000070ba0000563c000078
:1034c400b7490000173f0000641e0000ce41000011
:1034d40050cd00007a440000e6ec00001c470000d8
:1034e40033150000b4490000f3df00003f4c000036
:1034f400a4e80000bf4e000094cc0000335100004b
:10350400ef2a00009b530000d2a40000f5550000f0
:1035140054dd00004258000099790000825a0000ee
:10352400df200000b45c0000897c0000d75e00004e
:103534002f380000ec600000ac010000f2620000d3
:1035440025890000e86400001f810000cf660000a8
:10355400809e0000a6680000a39800006d6a000029
:103564005f290000246c0000140d0000ca6d0000e7
:10357400b10200005f6f0000c5cb0000e2700000e4
:10358400842c000055720000d0eb0000b5730000dd
:1035940044d30000047500003caf000041760000f5
:1035a400da4e00006c770000138400008478000079
:1035b400b02300008a7900005a0500007d7a0000db
:1035c4009d0300005d7b0000edfb0000297c0000f2
:1035d400b1ce0000e37c00003f5f00008a7d000064
:1035e400e99300001d7e0000fb5500009d7e000055
:1035f400c3910000097f00008e360000627f000046
:10360400b3360000a77f00008d870000d87f00003c
:1036140081210000f67f0000ffff0000ff7f000013
:1036240081210000f67f00008d870000d87f000014
:10363400b3360000a77f00008e360000627f0000d2
:10364400c3910000097f0000fb5500009d7e00002f
:10365400e99300001d7e00003f5f00008a7d0000aa
:10366400b1ce0000e37c0000edfb0000297c0000eb
:103674009d0300005d7b00005a0500007d7a000078
:10368400b02300008a7900001384000084780000cd
:10369400da4e00006c7700003caf00004176000079
:1036a40044d3000004750000d0eb0000b5730000a3
:1036b400842c000055720000c5cb0000e2700000ad
:1036c400b10200005f6f0000140d0000ca6d00001d
:1036d4005f290000246c0000a39800006d6a0000bc
:1036e400809e0000a66800001f810000cf660000d5
:1036f40025890000e8640000ac010000f2620000cb
:103704002f380000ec600000897c0000d75e0000c8
:10371400df200000b45c000099790000825a0000a8
:1037240054dd000042580000d2a40000f55500000a
:10373400ef2a00009b53000094cc0000335100009a
:10374400a4e80000bf4e0000f3df00003f4c00007f
:1037540033150000b4490000e6ec00001c470000eb
:1037640050cd00007a440000641e0000ce410000e9
:10377400b7490000173f000070ba0000563c000033
:1037840032dd00008c39000013200000ba3600003e
:1037940087f20000de3300004dc50000fb3000005e
:1037a400620a0000112e0000eb3400001f2b000001
:1037b40028b90000262800005d0c00002825000020
:1037c400c5a40000232200007bf90000191f00009b
:1037d4006a8200000b1c00003cb80000f8180000ce
:1037e40044140000e21500006e100000c81200002e
:1037f4002b270000ab0f00005ed300008b0c0000f1
:10380400499000006a0900007cd9000047060000c6
:10381400bf2a000024030000000000000000000094
:1038240041d50000dbfc000084260000b8f900004c
:10383400b76f000095f60000a22c000074f300009e
:10384400d5d8000054f0000092ef000037ed0000de
:10385400bceb00001dea0000c447000007e70000bd
:10386400967d0000f4e3000085060000e6e0000019
:103874003b5b0000dcdd0000a3f30000d7da0000ae
:10388400d8460000d9d7000015cb0000e0d40000d2
:103894009ef50000eed10000b33a000004cf000012
:1038a400790d000021cc0000eddf000045c90000c7
:1038b400ce22000073c6000090450000a9c300009a
:1038c40049b60000e8c000009ce1000031be0000e1
:1038d400b032000085bb00001a130000e3b80000fa
:1038e400cdea00004bb600000d200000c0b300007c
:1038f4005c17000040b100006c330000ccae000047
:1039040011d5000064ac00002e5b00000aaa000080
:10391400ac220000bda70000678600007da5000062
:1039240021df00004ba300007783000028a10000e2
:10393400d1c70000139f000054fe00000d9d00003d
:10394400db760000179b0000e17e00003099000048
:1039540080610000599700005d67000092950000a7
:10396400a1d60000db930000ecf2000035920000c9
:103974004ffd0000a09000003b3400001d8f0000ac
:103984007cd30000aa8d0000301400004a8c000093
:10399400bc2c0000fb8a0000c4500000be8900005b
:1039a40026b1000093880000ed7b00007b870000b7
:1039b40050dc000075860000a6fa00008285000035
:1039c40063fc0000a284000013040000d6830000fe
:1039d4004f3100001c830000c1a00000758200006c
:1039e400176c0000e281000005aa0000628100005b
:1039f4003d6e0000f680000072c900009d8000004a
:103a04004dc9000058800000737800002780000032
:103a14007fde00000980000001000000008000003b
:103a24007fde00000980000073780000278000001a
:103a34004dc900005880000072c900009d8000003c
:103a44003d6e0000f680000005aa000062810000bf
:103a5400176c0000e2810000c1a000007582000024
:103a64004f3100001c83000013040000d6830000c3
:103a740063fc0000a2840000a6fa00008285000016
:103a840050dc000075860000ed7b00007b870000a1
:103a940026b1000093880000c4500000be890000d5
:103aa400bc2c0000fb8a0000301400004a8c00008b
:103ab4007cd30000aa8d00003b3400001d8f000061
:103ac4004ffd0000a0900000ecf2000035920000d1
:103ad400a1d60000db9300005d6700009295000012
:103ae4008061000059970000e17e000030990000d9
:103af400db760000179b000054fe00000d9d0000c3
:103b0400d1c70000139f00007783000028a10000a4
:103b140021df00004ba30000678600007da50000a4
:103b2400ac220000bda700002e5b00000aaa000022
:103b340011d5000064ac00006c330000ccae000072
:103b44005c17000040b100000d200000c0b300006d
:103b5400cdea00004bb600001a130000e3b80000e1
:103b6400b032000085bb00009ce1000031be0000c3
:103b740049b60000e8c0000090450000a9c3000059
:103b8400ce22000073c60000eddf000045c900002e
:103b9400790d000021cc0000b33a000004cf0000ee
:103ba4009ef50000eed1000015cb0000e0d400002b
:103bb400d8460000d9d70000a3f30000d7da0000ec
:103bc4003b5b0000dcdd000085060000e6e0000051
:103bd400967d0000f4e30000c447000007e70000fe
:103be400bceb00001dea000092ef000037ed00007e
:103bf400d5d8000054f00000a22c000074f300009b
:103c0400b76f000095f6000084260000b8f90000a4
:103c140041d50000dbfc00000000000000000000b3
:103c24000000000000000000000000000000000090
:103c3400000000000001000001010000010100007b
:103c44000101000002020000020200000203000061
:103c54000303000003040000040400000405000042
:103c6400050500000606000006070000070700001f
:103c74000808000008090000090a00000a0a0000f8
:103c84000b0b00000c0c00000d0d00000e0e0000cc
:103c94000f0f00001010000011110000121200009c
:103ca4001313000014150000151600001617000069
:103cb40018180000191900001a1b00001b1c000032
:103cc4001d1d00001e1f00001f20000021210000f8
:103cd40022230000232400002526000026270000bc
:103ce40028290000292a00002b2b00002c2d00007d
:103cf4002e2e00002f30000031320000323300003d
:103d040034350000353600003738000039390000fa
:103d14003a3b00003c3c00003d3e00003f400000b8
:103d24004041000042430000444400004546000076
:103d340047470000484900004a4b00004b4c000034
:103d44004d4e00004e4f00005051000052520000f2
:103d540053540000555500005657000057580000b2
:103d6400595a00005a5b00005c5d00005d5e000073
:103d74005f5f000060610000616200006363000037
:103d840064650000656600006767000068680000fd
:103d9400696a00006a6b00006b6c00006d6d0000c6
:103da4006e6e00006f6f0000707000007171000093
:103db4007272000073730000747400007575000063
:103dc4007676000076770000777800007878000037
:103dd40079790000797a00007a7a00007b7b000010
:103de4007b7c00007c7c00007c7d00007d7d0000ed
:103df4007d7e00007e7e00007e7e00007f7f0000ce
:103e04007f7f00007f7f00007f7f00007f7f0000b6
:103e14007f7f00007f7f00007f7f00007f7f0000a6
:103e24007f00000000000000010000000500000009
:103e34000b000000140000001f0000002d00000013
:103e44003d00000050000000650000007c00000000
:103e540096000000b3000000d2000000f300000050
:103e6400170100003d0100006601000091010000ff
:103e7400bf010000ef010000210200005602000013
:103e84008d020000c702000003030000410300008c
:103e940082030000c50300000b040000520400006c
:103ea4009c040000e90400003805000088050000b7
:103eb400dc0500003106000089060000e30600006e
:103ec4003f0700009d070000fe0700006108000096
:103ed400c60800002d09000096090000010a000030
:103ee4006f0a0000de0a0000500b0000c30b000044
:103ef400390c0000b10c00002a0d0000a60d0000d2
:103f0400240e0000a30e0000240f0000a80f0000e0
:103f14002d100000b41000003d110000c811000075
:103f240054120000e2120000731300000414000095
:103f3400981400002d150000c41500005c16000044
:103f4400f6160000921700002f180000ce1800008b
:103f54006e190000101a0000b41a0000581b00006b
:103f6400fe1b0000a61c00004f1d0000f91d0000f0
:103f7400a51e0000521f000000200000af2000001a
:103f84006021000012220000c522000079230000f5
:103f94002e240000e52400009c2500005426000087
:103fa4000e270000c82700008328000040290000d5
:103fb400fd290000bb2a0000792b0000392c0000e9
:103fc400f92c0000bb2d00007c2e00003f2f0000c8
:103fd40002300000c63000008a3100004f32000079
:103fe40014330000da330000a13400006835000007
:103ff4002f360000f6360000be3700008738000078
:104004004f390000183a0000e13a0000ab3b0000d1
:10401400743c00003e3d0000073e0000d13e00001d
:104024009b3f0000654000002f410000f941000063
:10403400c24200008c430000554400001f450000ac
:10404400e8450000b14600007947000042480000fe
:104054000a490000d1490000984a00005f4b000063
:10406400264c0000ec4c0000b14d0000764e0000e0
:104074003a4f0000fe4f0000c15000008451000080
:104084004552000007530000c75300008754000046
:104094004555000003560000c05600007d5700003f
:1040a40038580000f2580000ac590000645a00006f
:1040b4001b5b0000d25b0000875c00003b5d0000de
:1040c400ee5d0000a05e0000515f00000060000093
:1040d400ae6000005b61000007620000b162000096
:1040e4005a63000002640000a86400004c650000ec
:1040f400f06500009266000032670000d16700009e
:104104006e6800000a690000a46900003c6a0000af
:10411400d36a0000686b0000fc6b00008d6c00002b
:104124001e6d0000ac6d0000386e0000c36e000010
:104134004c6f0000d36f000058700000dc7000006a
:104144005d710000dc7100005a720000d67200003c
:104154004f730000c77300003d740000b07400008a
:104164002275000091750000ff7500006a7600005a
:10417400d37600003a7700009f77000002780000b1
:1041840063780000c17800001d7900007779000091
:10419400cf790000247a0000787a0000c87a000001
:1041a400177b0000647b0000ae7b0000f57b000001
:1041b4003b7c00007e7c0000bf7c0000fd7c000096
:1041c400397d0000737d0000aa7d0000df7d0000c2
:1041d400117e0000417e00006f7e00009a7e000088
:1041e400c37e0000e97e00000d7f00002e7f0000ea
:1041f4004d7f00006a7f0000847f00009b7f0000e9
:10420400b07f0000c37f0000d37f0000e17f000087
:10421400ec7f0000f57f0000fb7f0000ff7f0000c3
:10422400ff7f0000ff7f000000000000000000008e
:104234004e3e0000010000002cf9000004000000c4
:10424400753000000b000000ebe3000013000000d9
:10425400371300001f000000ebbd00002c0000001d
:104264007de300003c0000004f8300004f0000008d
:10427400a69c000064000000b02e00007c0000003a
:1042840083380000960000001cb90000b200000052
:1042940060af0000d10000001b1a0000f300000012
:1042a400fff7000016010000a94700003d010000cf
:1042b4009b070000660100004036000091010000e9
:1042c400ebd10000be010000d5d80000ee010000d3
:1042d4002149000021020000da20000056020000fb
:1042e400f15d00008d02000042fe0000c6020000e5
:1042f4008eff000002030000825f00004103000003
:10430400b01b00008203000095310000c5030000cb
:10431400969e00000a0400000060000052040000a1
:10432400087300009c040000cfd40000e8040000df
:104334005d82000037050000a278000088050000b7
:104344007ab40000db050000a93200003106000049
:10435400dcef000088060000aae80000e206000086
:10436400951900003f070000087f00009d0700002a
:1043740057150000fe070000c2d8000060080000c6
:1043840072c50000c50800007cd700002c0900009d
:10439400de0a000096090000825b0000010a0000aa
:1043a4003cc500006e0a0000cc430000de0a000099
:1043b400ded200004f0b0000076e0000c30b0000ac
:1043c400c9100000390c000092b60000b00c0000c7
:1043d400bd5a00002a0d00008ff80000a50d000052
:1043e4003b8b0000230e0000df0d0000a30e000035
:1043f400877b0000240f00002dcf0000a70f0000d2
:10440400b40300002d100000f1130000b4100000ec
:10441400a4fa00003c1100007cb20000c7110000a7
:104424001336000054120000f57f0000e212000071
:104434009b8a0000721300006b50000004140000fb
:10444400bccb000097140000d2f600002c1500002d
:10445400e2cb0000c3150000104500005c1600000c
:104464006e5c0000f6160000000c000092170000bd
:10447400b94d00002f1800007e1b0000ce1800006c
:10448400226f00006e1900006b420000101a000039
:104494000f8f0000b31a0000b64e0000581b000036
:1044a400f97a0000fe1b0000620d0000a61c00004b
:1044b40070ff00004e1d0000924a0000f91d00002c
:1044c40029e80000a41e00008bd10000511f000049
:1044d4000000000000200000c36c0000af200000ba
:1044e4000311000060210000e3e500001122000038
:1044f4007be40000c4220000d505000079230000fd
:10450400f24200002e240000c7940000e4240000be
:1045140040f400009b2500003a5a00005426000095
:104524008dbf00000d270000051d0000c8270000f6
:10453400636b00008328000060a300003f29000093
:10454400adbd0000fc290000efb20000ba2a000053
:10455400c77b0000792b0000c9100000392c000033
:10456400846a0000f92c00007f810000ba2d00004d
:104574003a4e00007c2e00002cc900003e2f0000a3
:10458400c7ea00000130000076ab0000c53000002f
:104594009d0300008a3100009deb00004e320000b4
:1045a400ce5b000014330000844c0000da330000ba
:1045b4000eb60000a0340000b7900000673500007c
:1045c400c5d400002e360000797a0000f6360000cb
:1045d400127a0000be370000cacb00008638000003
:1045e400d96700004f39000073460000183a0000f4
:1045f400cb5f0000e13a00000fac0000aa3b0000d2
:104604006e230000743c000013be00003d3d00001a
:104614002a740000073e0000db3d0000d13e00008c
:10462400501300009b3f0000b0ec00006440000009
:1046340025c200002e410000d68b0000f841000086
:10464400ed410000c242000092dc00008b430000f8
:10465400f15300005544000035a000001e45000041
:104664008db90000e745000027980000b04600001f
:104674003634000079470000ee8500004148000010
:1046840087850000094900003b2b0000d149000048
:10469400496f0000984a0000f24900005f4b000097
:1046a4007cb30000254c000032a40000eb4c000059
:1046b40063140000b14d000063fc0000754e00005f
:1046c4008a5400003a4f000039150000fe4f0000e4
:1046d400d4360000c1500000c6b100008351000070
:1046e400817e0000455200007c95000006530000c6
:1046f40037ef0000c65300003984000086540000e0
:10470400114d0000455500005342000003560000bf
:10471400a05c0000c05600009d9400007c5700007f
:10472400fbe200003758000073400000f25800001c
:10473400c6a50000ab590000c00b0000645a00007d
:10474400396b00001b5b00000ebd0000d15b000054
:104754002bfa0000865c0000851b00003b5d000016
:104764001d1a0000ee5d0000fdee00009f5e0000db
:104774003d930000505f0000000000000060000056
:10478400752e0000ae600000d71700005b610000ca
:104794006eb500000662000090000000b1620000e7
:1047a4009ef20000596300000785000001640000c8
:1047b4004ab10000a7640000f17000004c650000dd
:1047c40095bd0000ef650000de90000091660000da
:1047d40082e400003167000047b20000d0670000a7
:1047e40000f400006d68000092a300000969000055
:1047f400f0ba0000a36900001e3400003c6a000007
:104804002e090000d36a000044340000686b0000e5
:1048140095af0000fb6b0000657500008d6c000017
:104824000b8000001d6d0000edc90000ab6d0000a1
:10483400844d0000386e00005c050000c36e00006b
:104844000fec00004b6f00004cfc0000d26f000026
:10485400d33000005870000079840000db70000041
:1048640021f200005c710000c5740000dc710000de
:10487400710700005a72000043a50000d5720000c1
:104884006e4900004f73000037ef0000c67300004c
:10489400f99100003c740000222d0000b074000067
:1048a40034bc000021750000c43a0000917500007a
:1048b4007ea40000fe75000022f500006976000069
:1048c40084280000d37600008e3a00003a77000076
:1048d4003e2700009f770000a9ea0000017800004d
:1048e400f8800000627800006be60000c0780000e9
:1048f400561700001d79000024100000777900008d
:1049040057cd0000ce790000864b0000247a0000c9
:104914005e870000777a0000a37d0000c87a00005b
:10492400312b0000177b0000f88c0000637b000033
:1049340000a00000ad7b00006a610000f57b000070
:104944006bce00003a7c000050e400007d7c000047
:104954007ea00000be7c000072000000fd7c000010
:10496400be010000397d00000fa20000727d00002e
:1049740026df0000a97d0000dfb60000de7d000018
:104984002b270000117e0000152e0000417e000040
:10499400c0c900006e7e000065f80000997e00002a
:1049a40057b80000c27e000001080000e97e000044
:1049b400e5e500000c7f0000a05000002e7f000001
:1049c400e44600004d7f00007dc70000697f0000c1
:1049d40050d10000837f00005a6300009b7f0000d9
:1049e400b17c0000b07f0000831c0000c37f000086
:1049f40015420000d37f0000c9ec0000e07f0000f6
:104a0400151c0000ec7f00008bcf0000f47f000039
:104a1400d4060000fb7f0000b2c10000fe7f00004e
:104a2400ffff0000ff7f0000ffff0000ff7f00008a
:104a34007f7f00007f7f00007f7f00007f7f00007a
:104a44007f7f00007f7f00007f7f00007f7f00006a
:104a54007f7f00007f7f00007f7f00007f7f00005a
:104a64007f7f00007f7f00007f7f00007f7f00004a
:104a74007f7f00007f7f00007f7f00007f7f00003a
:104a84007f7f00007f7f00007f7f00007f7f00002a
:104a94007f7f00007f7f00007f7f00007f7f00001a
:104aa4007f7f00007f7f00007f7f00007f7f00000a
:104ab4007f7f00007f7f00007f7f00007f7f0000fa
:104ac4007f7f00007f7f00007f7f00007f7f0000ea
:104ad4007f7f00007f7f00007f7f00007f7f0000da
:104ae4007f7f00007f7f00007f7f00007f7f0000ca
:104af4007f7f00007f7f00007f7f00007f7f0000ba
:104b04007f7f00007f7f00007f7f00007f7f0000a9
:104b14007f7f00007f7f00007f7f00007f7f000099
:104b24007f7f00007f7f00007f7f00007f7f000089
:104b34002f2f0000303000003131000031320000ee
:104b440032330000333300003434000035350000c4
:104b5400353600003637000037370000383800009b
:104b6400393900003a3a00003b3b00003c3c00006d
:104b74003c3d00003d3e00003e3f00003f40000041
:104b84004041000041420000424300004344000011
:104b940045450000464600004747000048480000dd
:104ba400494a00004a4b00004b4c00004c4d0000a9
:104bb4004e4e00004f4f0000505100005152000073
:104bc4005353000054550000555600005757000039
:104bd40058590000595a00005b5b00005c5d0000fe
:104be4005e5e00005f6000006161000062630000bf
:104bf400646400006566000067680000686900007e
:104c04006a6b00006c6d00006d6e00006f70000038
:104c140071720000737400007575000076770000ef
:104c2400787900007a7b00007c7d00007e7f0000a4
:104c34007f000000ff7f0000ff7f0000ff7f000077
:104c4400ff7f0000ff7f0000ff7f0000ff7f000068
:104c5400ff7f0000ff7f0000ff7f0000ff7f000058
:104c6400ff7f0000ff7f0000ff7f0000ff7f000048
:104c7400ff7f0000ff7f0000ff7f0000ff7f000038
:104c8400ff7f0000ff7f0000ff7f0000ff7f000028
:104c9400ff7f0000ff7f0000ff7f0000ff7f000018
:104ca400ff7f0000ff7f0000ff7f0000ff7f000008
:104cb400ff7f0000ff7f0000ff7f0000ff7f0000f8
:104cc400ff7f0000ff7f0000ff7f0000ff7f0000e8
:104cd400ff7f0000ff7f0000ff7f0000ff7f0000d8
:104ce400ff7f0000ff7f0000ff7f0000ff7f0000c8
:104cf400ff7f0000ff7f0000ff7f0000ff7f0000b8
:104d0400ff7f0000ff7f0000ff7f0000ff7f0000a7
:104d1400ff7f0000ff7f0000ff7f0000ff7f000097
:104d2400ff7f0000ff7f0000ff7f0000ff7f000087
:104d3400ff7f0000ff7f0000ff7f0000ff7f000077
:104d4400ff7f0000ff7f0000ff7f0000ff7f000067
:104d5400ff7f0000ff7f0000ff7f0000ff7f000057
:104d6400ff7f0000ff7f0000ff7f0000ff7f000047
:104d7400ff7f0000ff7f0000ff7f0000ff7f000037
:104d8400ff7f0000ff7f0000ff7f0000ff7f000027
:104d9400ff7f0000ff7f0000ff7f0000ff7f000017
:104da400ff7f0000ff7f0000ff7f0000ff7f000007
:104db400ff7f0000ff7f0000ff7f0000ff7f0000f7
:104dc400ff7f0000ff7f0000ff7f0000ff7f0000e7
:104dd400ff7f0000ff7f0000ff7f0000ff7f0000d7
:104de400ff7f0000ff7f0000ff7f0000ff7f0000c7
:104df400ff7f0000ff7f0000ff7f0000ff7f0000b7
:104e0400ff7f0000ff7f0000ff7f0000ff7f0000a6
:104e1400ff7f0000ff7f0000ff7f0000ff7f000096
:104e2400ff7f0000ff7f0000ff7f0000ff7f000086
:104e3400ff7f0000172f0000752f0000d52f000002
:104e44003530000095300000f73000005931000083
:104e5400bc3100002032000085320000ea3200003c
:104e640050330000b73300001f34000088340000c2
:104e7400f13400005c350000c73500003336000013
:104e8400a03600000d3700007c370000eb3700002f
:104e94005c380000cd3800003f390000b239000012
:104ea400263a00009a3a0000103b0000873b0000bd
:104eb400fe3b0000773c0000f03c00006a3d00002f
:104ec400e63d0000623e0000df3e00005d3f000062
:104ed400dd3f00005d400000de4000006041000056
:104ee400e441000068420000ed4200007443000009
:104ef400fb430000834400000d450000984500007a
:104f040023460000b04600003e470000cd470000a5
:104f14005d480000ef48000081490000154a000088
:104f2400a94a00003f4b0000d64b00006f4c000024
:104f3400084d0000a34d00003f4e0000dc4e000071
:104f44007a4f00001a500000bb5000005d51000071
:104f540000520000a55200004b530000f253000021
:104f64009a54000044550000ef5500009c56000080
:104f74004a570000f9570000aa5800005c59000085
:104f84000f5a0000c45a00007a5b0000325c000033
:104f9400eb5c0000a65d0000625e00001f5f000085
:104fa400de5f00009f600000616100002462000079
:104fb400e9620000b063000078640000426500000c
:104fc4000d660000da660000a8670000786800003b
:104fd4004a6900001e6a0000f36a0000c96b000001
:104fe400a26c00007c6d0000586e0000356f00005c
:104ff40015700000f6700000d8710000bd7200004a
:10500400a37300008c7400007675000061760000c4
:105014004f7700003f78000030790000237a0000c9
:10502400197b0000107c0000097d0000047e000054
:10503400017f0000ff7f0000ffff0000ff7f0000f2
:10504400ffff0000ff7f0000ffff0000ff7f000064
:10505400ffff0000ff7f0000ffff0000ff7f000054
:10506400ffff0000ff7f0000ffff0000ff7f000044
:10507400ffff0000ff7f0000ffff0000ff7f000034
:10508400ffff0000ff7f0000ffff0000ff7f000024
:10509400ffff0000ff7f0000ffff0000ff7f000014
:1050a400ffff0000ff7f0000ffff0000ff7f000004
:1050b400ffff0000ff7f0000ffff0000ff7f0000f4
:1050c400ffff0000ff7f0000ffff0000ff7f0000e4
:1050d400ffff0000ff7f0000ffff0000ff7f0000d4
:1050e400ffff0000ff7f0000ffff0000ff7f0000c4
:1050f400ffff0000ff7f0000ffff0000ff7f0000b4
:10510400ffff0000ff7f0000ffff0000ff7f0000a3
:10511400ffff0000ff7f0000ffff0000ff7f000093
:10512400ffff0000ff7f0000ffff0000ff7f000083
:10513400ffff0000ff7f0000ffff0000ff7f000073
:10514400ffff0000ff7f0000ffff0000ff7f000063
:10515400ffff0000ff7f0000ffff0000ff7f000053
:10516400ffff0000ff7f0000ffff0000ff7f000043
:10517400ffff0000ff7f0000ffff0000ff7f000033
:10518400ffff0000ff7f0000ffff0000ff7f000023
:10519400ffff0000ff7f0000ffff0000ff7f000013
:1051a400ffff0000ff7f0000ffff0000ff7f000003
:1051b400ffff0000ff7f0000ffff0000ff7f0000f3
:1051c400ffff0000ff7f0000ffff0000ff7f0000e3
:1051d400ffff0000ff7f0000ffff0000ff7f0000d3
:1051e400ffff0000ff7f0000ffff0000ff7f0000c3
:1051f400ffff0000ff7f0000ffff0000ff7f0000b3
:10520400ffff0000ff7f0000ffff0000ff7f0000a2
:10521400ffff0000ff7f0000ffff0000ff7f000092
:10522400ffff0000ff7f0000ffff0000ff7f000082
:10523400ffff0000ff7f0000ffff0000ff7f000072
:10524400ffff0000ff7f0000ffff0000ff7f000062
:10525400ffff0000ff7f0000ffff0000ff7f000052
:10526400ffff0000ff7f0000ffff0000ff7f000042
:10527400ffff0000ff7f0000ffff0000ff7f000032
:10528400ffff0000ff7f0000ffff0000ff7f000022
:10529400ffff0000ff7f0000ffff0000ff7f000012
:1052a400ffff0000ff7f0000ffff0000ff7f000002
:1052b400ffff0000ff7f0000ffff0000ff7f0000f2
:1052c400ffff0000ff7f0000ffff0000ff7f0000e2
:1052d400ffff0000ff7f0000ffff0000ff7f0000d2
:1052e400ffff0000ff7f0000ffff0000ff7f0000c2
:1052f400ffff0000ff7f0000ffff0000ff7f0000b2
:10530400ffff0000ff7f0000ffff0000ff7f0000a1
:10531400ffff0000ff7f0000ffff0000ff7f000091
:10532400ffff0000ff7f0000ffff0000ff7f000081
:10533400ffff0000ff7f0000ffff0000ff7f000071
:10534400ffff0000ff7f0000ffff0000ff7f000061
:10535400ffff0000ff7f0000ffff0000ff7f000051
:10536400ffff0000ff7f0000ffff0000ff7f000041
:10537400ffff0000ff7f0000ffff0000ff7f000031
:10538400ffff0000ff7f0000ffff0000ff7f000021
:10539400ffff0000ff7f0000ffff0000ff7f000011
:1053a400ffff0000ff7f0000ffff0000ff7f000001
:1053b400ffff0000ff7f0000ffff0000ff7f0000f1
:1053c400ffff0000ff7f0000ffff0000ff7f0000e1
:1053d400ffff0000ff7f0000ffff0000ff7f0000d1
:1053e400ffff0000ff7f0000ffff0000ff7f0000c1
:1053f400ffff0000ff7f0000ffff0000ff7f0000b1
:10540400ffff0000ff7f0000ffff0000ff7f0000a0
:10541400ffff0000ff7f0000ffff0000ff7f000090
:10542400ffff0000ff7f0000ffff0000ff7f000080
:10543400ffff0000ff7f00006cac0000162f00008f
:1054440031380000752f0000cc810000d42f0000fb
:10545400b88a000034300000775400009530000012
:105464008ce00000f63000007c3000005931000070
:10547400d1450000bc310000182200002032000099
:10548400dfc6000084320000ba350000ea320000b2
:105494003e7000005033000004780000b733000071
:1054a400a84e00001f340000c9f500008734000036
:1054b4000b6f0000f134000013bc00005b350000ea
:1054c4008ade0000c63500001cd800003236000019
:1054d4007baa00009f360000585700000d370000db
:1054e4006be000007b3700006d470000eb370000e5
:1054f4001e8e00005b3800003cb60000cc38000073
:105504008ec100003e390000dbb10000b13900005b
:10551400ef880000253a00009a4800009a3a0000fb
:10552400aef200000f3b000002890000863b000041
:10553400710d0000fe3b0000d8810000763c0000a5
:1055440019e80000ef3c00001b4200006a3d000027
:10555400c6910000e53d000007d90000613e00004f
:10556400d0190000df3e0000165600005d3f000029
:10557400d18f0000dc3f0000ffc800005c40000049
:10558400a1030000de400000bb41000060410000b8
:1055940056850000e341000080d00000674200000f
:1055a40049250000ed420000c88500007343000057
:1055b40014f40000fa4300004d720000834400001c
:1055c400940200000d45000010a70000974500005c
:1055d400ea6100002346000052350000b046000096
:1055e4007c2300003e4700009e2e0000cd470000b3
:1055f400f65800005d480000c3a40000ee48000017
:105604004b14000081490000d8a90000144a00008e
:10561400b8670000a94a00003e5000003f4b00005c
:10562400c2650000d64b00009faa00006e4c00002b
:1056340038210000084d0000f2cb0000a24d00000c
:1056440037ad00003e4e000077c70000db4e00007f
:10565400271d00007a4f0000c0b000001950000060
:10566400c0840000ba500000aa9b00005c510000f6
:1056740007f80000ff510000659c0000a4520000e0
:10568400558b00004a53000070c70000f15300001e
:10569400535300009a5400009f3100004455000009
